{
  "_format": "hh-sol-artifact-1",
  "contractName": "Block",
  "sourceName": "contracts/BlockStaking.sol",
  "abi": [
    {
      "inputs": [],
      "stateMutability": "nonpayable",
      "type": "constructor"
    },
    {
      "anonymous": false,
      "inputs": [
        {
          "indexed": true,
          "internalType": "address",
          "name": "owner",
          "type": "address"
        },
        {
          "indexed": true,
          "internalType": "address",
          "name": "spender",
          "type": "address"
        },
        {
          "indexed": false,
          "internalType": "uint256",
          "name": "value",
          "type": "uint256"
        }
      ],
      "name": "Approval",
      "type": "event"
    },
    {
      "anonymous": false,
      "inputs": [
        {
          "indexed": true,
          "internalType": "address",
          "name": "previousOwner",
          "type": "address"
        },
        {
          "indexed": true,
          "internalType": "address",
          "name": "newOwner",
          "type": "address"
        }
      ],
      "name": "OwnershipTransferred",
      "type": "event"
    },
    {
      "anonymous": false,
      "inputs": [
        {
          "indexed": true,
          "internalType": "address",
          "name": "from",
          "type": "address"
        },
        {
          "indexed": true,
          "internalType": "address",
          "name": "to",
          "type": "address"
        },
        {
          "indexed": false,
          "internalType": "uint256",
          "name": "value",
          "type": "uint256"
        }
      ],
      "name": "Transfer",
      "type": "event"
    },
    {
      "inputs": [
        {
          "internalType": "address",
          "name": "owner",
          "type": "address"
        },
        {
          "internalType": "address",
          "name": "spender",
          "type": "address"
        }
      ],
      "name": "allowance",
      "outputs": [
        {
          "internalType": "uint256",
          "name": "",
          "type": "uint256"
        }
      ],
      "stateMutability": "view",
      "type": "function"
    },
    {
      "inputs": [
        {
          "internalType": "address",
          "name": "spender",
          "type": "address"
        },
        {
          "internalType": "uint256",
          "name": "amount",
          "type": "uint256"
        }
      ],
      "name": "approve",
      "outputs": [
        {
          "internalType": "bool",
          "name": "",
          "type": "bool"
        }
      ],
      "stateMutability": "nonpayable",
      "type": "function"
    },
    {
      "inputs": [
        {
          "internalType": "address",
          "name": "account",
          "type": "address"
        }
      ],
      "name": "balanceOf",
      "outputs": [
        {
          "internalType": "uint256",
          "name": "",
          "type": "uint256"
        }
      ],
      "stateMutability": "view",
      "type": "function"
    },
    {
      "inputs": [],
      "name": "buyPrice",
      "outputs": [
        {
          "internalType": "uint256",
          "name": "",
          "type": "uint256"
        }
      ],
      "stateMutability": "view",
      "type": "function"
    },
    {
      "inputs": [
        {
          "internalType": "address",
          "name": "receiver",
          "type": "address"
        }
      ],
      "name": "buyToken",
      "outputs": [],
      "stateMutability": "payable",
      "type": "function"
    },
    {
      "inputs": [],
      "name": "claimReward",
      "outputs": [],
      "stateMutability": "nonpayable",
      "type": "function"
    },
    {
      "inputs": [],
      "name": "decimals",
      "outputs": [
        {
          "internalType": "uint8",
          "name": "",
          "type": "uint8"
        }
      ],
      "stateMutability": "view",
      "type": "function"
    },
    {
      "inputs": [
        {
          "internalType": "address",
          "name": "spender",
          "type": "address"
        },
        {
          "internalType": "uint256",
          "name": "subtractedValue",
          "type": "uint256"
        }
      ],
      "name": "decreaseAllowance",
      "outputs": [
        {
          "internalType": "bool",
          "name": "",
          "type": "bool"
        }
      ],
      "stateMutability": "nonpayable",
      "type": "function"
    },
    {
      "inputs": [
        {
          "internalType": "address",
          "name": "spender",
          "type": "address"
        },
        {
          "internalType": "uint256",
          "name": "addedValue",
          "type": "uint256"
        }
      ],
      "name": "increaseAllowance",
      "outputs": [
        {
          "internalType": "bool",
          "name": "",
          "type": "bool"
        }
      ],
      "stateMutability": "nonpayable",
      "type": "function"
    },
    {
      "inputs": [
        {
          "internalType": "uint256",
          "name": "newBuyPrice",
          "type": "uint256"
        }
      ],
      "name": "modifyTokenBuyPrice",
      "outputs": [],
      "stateMutability": "nonpayable",
      "type": "function"
    },
    {
      "inputs": [
        {
          "internalType": "uint256",
          "name": "newTokenRate",
          "type": "uint256"
        }
      ],
      "name": "modifyTokenRate",
      "outputs": [],
      "stateMutability": "nonpayable",
      "type": "function"
    },
    {
      "inputs": [],
      "name": "name",
      "outputs": [
        {
          "internalType": "string",
          "name": "",
          "type": "string"
        }
      ],
      "stateMutability": "view",
      "type": "function"
    },
    {
      "inputs": [],
      "name": "owner",
      "outputs": [
        {
          "internalType": "address",
          "name": "",
          "type": "address"
        }
      ],
      "stateMutability": "view",
      "type": "function"
    },
    {
      "inputs": [],
      "name": "renounceOwnership",
      "outputs": [],
      "stateMutability": "nonpayable",
      "type": "function"
    },
    {
      "inputs": [
        {
          "internalType": "uint256",
          "name": "percent",
          "type": "uint256"
        }
      ],
      "name": "setRewardPercent",
      "outputs": [],
      "stateMutability": "nonpayable",
      "type": "function"
    },
    {
      "inputs": [
        {
          "internalType": "uint256",
          "name": "amount",
          "type": "uint256"
        }
      ],
      "name": "stake",
      "outputs": [],
      "stateMutability": "nonpayable",
      "type": "function"
    },
    {
      "inputs": [],
      "name": "symbol",
      "outputs": [
        {
          "internalType": "string",
          "name": "",
          "type": "string"
        }
      ],
      "stateMutability": "view",
      "type": "function"
    },
    {
      "inputs": [],
      "name": "tokenRate",
      "outputs": [
        {
          "internalType": "uint256",
          "name": "",
          "type": "uint256"
        }
      ],
      "stateMutability": "view",
      "type": "function"
    },
    {
      "inputs": [],
      "name": "totalSupply",
      "outputs": [
        {
          "internalType": "uint256",
          "name": "",
          "type": "uint256"
        }
      ],
      "stateMutability": "view",
      "type": "function"
    },
    {
      "inputs": [
        {
          "internalType": "address",
          "name": "to",
          "type": "address"
        },
        {
          "internalType": "uint256",
          "name": "amount",
          "type": "uint256"
        }
      ],
      "name": "transfer",
      "outputs": [
        {
          "internalType": "bool",
          "name": "",
          "type": "bool"
        }
      ],
      "stateMutability": "nonpayable",
      "type": "function"
    },
    {
      "inputs": [
        {
          "internalType": "address",
          "name": "from",
          "type": "address"
        },
        {
          "internalType": "address",
          "name": "to",
          "type": "address"
        },
        {
          "internalType": "uint256",
          "name": "amount",
          "type": "uint256"
        }
      ],
      "name": "transferFrom",
      "outputs": [
        {
          "internalType": "bool",
          "name": "",
          "type": "bool"
        }
      ],
      "stateMutability": "nonpayable",
      "type": "function"
    },
    {
      "inputs": [
        {
          "internalType": "address",
          "name": "newOwner",
          "type": "address"
        }
      ],
      "name": "transferOwnership",
      "outputs": [],
      "stateMutability": "nonpayable",
      "type": "function"
    },
    {
      "inputs": [
        {
          "internalType": "uint256",
          "name": "amount",
          "type": "uint256"
        }
      ],
      "name": "unStake",
      "outputs": [],
      "stateMutability": "nonpayable",
      "type": "function"
    },
    {
      "inputs": [
        {
          "internalType": "address",
          "name": "",
          "type": "address"
        }
      ],
      "name": "userStake",
      "outputs": [
        {
          "internalType": "uint256",
          "name": "",
          "type": "uint256"
        }
      ],
      "stateMutability": "view",
      "type": "function"
    }
  ],
  "bytecode": "0x6080604052670de0b6b3a76400006006553480156200001d57600080fd5b506040518060400160405280600581526020017f426c6f636b0000000000000000000000000000000000000000000000000000008152506040518060400160405280600381526020017f424c4b00000000000000000000000000000000000000000000000000000000008152508160039080519060200190620000a292919062000389565b508060049080519060200190620000bb92919062000389565b505050620000de620000d26200010e60201b60201c565b6200011660201b60201c565b62000108620000f2620001dc60201b60201c565b683635c9adc5dea000006200020660201b60201c565b620005e5565b600033905090565b6000600560009054906101000a900473ffffffffffffffffffffffffffffffffffffffff16905081600560006101000a81548173ffffffffffffffffffffffffffffffffffffffff021916908373ffffffffffffffffffffffffffffffffffffffff1602179055508173ffffffffffffffffffffffffffffffffffffffff168173ffffffffffffffffffffffffffffffffffffffff167f8be0079c531659141344cd1fd0a4f28419497f9722a3daafe3b4186f6b6457e060405160405180910390a35050565b6000600560009054906101000a900473ffffffffffffffffffffffffffffffffffffffff16905090565b600073ffffffffffffffffffffffffffffffffffffffff168273ffffffffffffffffffffffffffffffffffffffff16141562000279576040517f08c379a0000000000000000000000000000000000000000000000000000000008152600401620002709062000471565b60405180910390fd5b6200028d600083836200037f60201b60201c565b8060026000828254620002a19190620004c1565b92505081905550806000808473ffffffffffffffffffffffffffffffffffffffff1673ffffffffffffffffffffffffffffffffffffffff1681526020019081526020016000206000828254620002f89190620004c1565b925050819055508173ffffffffffffffffffffffffffffffffffffffff16600073ffffffffffffffffffffffffffffffffffffffff167fddf252ad1be2c89b69c2b068fc378daa952ba7f163c4a11628f55a4df523b3ef836040516200035f919062000493565b60405180910390a36200037b600083836200038460201b60201c565b5050565b505050565b505050565b828054620003979062000528565b90600052602060002090601f016020900481019282620003bb576000855562000407565b82601f10620003d657805160ff191683800117855562000407565b8280016001018555821562000407579182015b8281111562000406578251825591602001919060010190620003e9565b5b5090506200041691906200041a565b5090565b5b80821115620004355760008160009055506001016200041b565b5090565b600062000448601f83620004b0565b91506200045582620005bc565b602082019050919050565b6200046b816200051e565b82525050565b600060208201905081810360008301526200048c8162000439565b9050919050565b6000602082019050620004aa600083018462000460565b92915050565b600082825260208201905092915050565b6000620004ce826200051e565b9150620004db836200051e565b9250827fffffffffffffffffffffffffffffffffffffffffffffffffffffffffffffffff038211156200051357620005126200055e565b5b828201905092915050565b6000819050919050565b600060028204905060018216806200054157607f821691505b602082108114156200055857620005576200058d565b5b50919050565b7f4e487b7100000000000000000000000000000000000000000000000000000000600052601160045260246000fd5b7f4e487b7100000000000000000000000000000000000000000000000000000000600052602260045260246000fd5b7f45524332303a206d696e7420746f20746865207a65726f206164647265737300600082015250565b61281e80620005f56000396000f3fe60806040526004361061014b5760003560e01c80637e72fb52116100b6578063a694fc3a1161006f578063a694fc3a14610499578063a9059cbb146104c2578063b88a802f146104ff578063c1c5dd2714610516578063dd62ed3e1461053f578063f2fde38b1461057c5761014b565b80637e72fb5214610396578063834dc984146103b25780638620410b146103db5780638da5cb5b1461040657806395d89b4114610431578063a457c2d71461045c5761014b565b806331711884116101085780633171188414610274578063395093511461029f5780635d3eea91146102dc57806368e5585d1461030557806370a0823114610342578063715018a61461037f5761014b565b806306fdde0314610150578063095ea7b31461017b57806318160ddd146101b857806323b872dd146101e35780632ebc232814610220578063313ce56714610249575b600080fd5b34801561015c57600080fd5b506101656105a5565b6040516101729190611eaa565b60405180910390f35b34801561018757600080fd5b506101a2600480360381019061019d9190611b47565b610637565b6040516101af9190611e8f565b60405180910390f35b3480156101c457600080fd5b506101cd61065a565b6040516101da91906120ec565b60405180910390f35b3480156101ef57600080fd5b5061020a60048036038101906102059190611af8565b610664565b6040516102179190611e8f565b60405180910390f35b34801561022c57600080fd5b5061024760048036038101906102429190611b83565b610693565b005b34801561025557600080fd5b5061025e610719565b60405161026b9190612107565b60405180910390f35b34801561028057600080fd5b50610289610722565b60405161029691906120ec565b60405180910390f35b3480156102ab57600080fd5b506102c660048036038101906102c19190611b47565b610728565b6040516102d39190611e8f565b60405180910390f35b3480156102e857600080fd5b5061030360048036038101906102fe9190611b83565b6107d2565b005b34801561031157600080fd5b5061032c60048036038101906103279190611a93565b61090e565b60405161033991906120ec565b60405180910390f35b34801561034e57600080fd5b5061036960048036038101906103649190611a93565b610926565b60405161037691906120ec565b60405180910390f35b34801561038b57600080fd5b5061039461096e565b005b6103b060048036038101906103ab9190611a93565b6109f6565b005b3480156103be57600080fd5b506103d960048036038101906103d49190611b83565b610a6e565b005b3480156103e757600080fd5b506103f0610af4565b6040516103fd91906120ec565b60405180910390f35b34801561041257600080fd5b5061041b610afa565b6040516104289190611e74565b60405180910390f35b34801561043d57600080fd5b50610446610b24565b6040516104539190611eaa565b60405180910390f35b34801561046857600080fd5b50610483600480360381019061047e9190611b47565b610bb6565b6040516104909190611e8f565b60405180910390f35b3480156104a557600080fd5b506104c060048036038101906104bb9190611b83565b610ca0565b005b3480156104ce57600080fd5b506104e960048036038101906104e49190611b47565b610d9c565b6040516104f69190611e8f565b60405180910390f35b34801561050b57600080fd5b50610514610dbf565b005b34801561052257600080fd5b5061053d60048036038101906105389190611b83565b610ef2565b005b34801561054b57600080fd5b5061056660048036038101906105619190611abc565b610f91565b60405161057391906120ec565b60405180910390f35b34801561058857600080fd5b506105a3600480360381019061059e9190611a93565b611018565b005b6060600380546105b4906122db565b80601f01602080910402602001604051908101604052809291908181526020018280546105e0906122db565b801561062d5780601f106106025761010080835404028352916020019161062d565b820191906000526020600020905b81548152906001019060200180831161061057829003601f168201915b5050505050905090565b600080610642611110565b905061064f818585611118565b600191505092915050565b6000600254905090565b60008061066f611110565b905061067c8582856112e3565b61068785858561136f565b60019150509392505050565b61069b611110565b73ffffffffffffffffffffffffffffffffffffffff166106b9610afa565b73ffffffffffffffffffffffffffffffffffffffff161461070f576040517f08c379a00000000000000000000000000000000000000000000000000000000081526004016107069061200c565b60405180910390fd5b8060088190555050565b60006012905090565b60085481565b600080610733611110565b90506107c7818585600160008673ffffffffffffffffffffffffffffffffffffffff1673ffffffffffffffffffffffffffffffffffffffff16815260200190815260200160002060008973ffffffffffffffffffffffffffffffffffffffff1673ffffffffffffffffffffffffffffffffffffffff168152602001908152602001600020546107c2919061213e565b611118565b600191505092915050565b60008111610815576040517f08c379a000000000000000000000000000000000000000000000000000000000815260040161080c90611f8c565b60405180910390fd5b60096000610821611110565b73ffffffffffffffffffffffffffffffffffffffff1673ffffffffffffffffffffffffffffffffffffffff16815260200190815260200160002054811061089d576040517f08c379a000000000000000000000000000000000000000000000000000000000815260040161089490611fac565b60405180910390fd5b80600960006108aa611110565b73ffffffffffffffffffffffffffffffffffffffff1673ffffffffffffffffffffffffffffffffffffffff16815260200190815260200160002060008282546108f3919061221f565b9250508190555061090b610905611110565b826115f0565b50565b60096020528060005260406000206000915090505481565b60008060008373ffffffffffffffffffffffffffffffffffffffff1673ffffffffffffffffffffffffffffffffffffffff168152602001908152602001600020549050919050565b610976611110565b73ffffffffffffffffffffffffffffffffffffffff16610994610afa565b73ffffffffffffffffffffffffffffffffffffffff16146109ea576040517f08c379a00000000000000000000000000000000000000000000000000000000081526004016109e19061200c565b60405180910390fd5b6109f46000611750565b565b600654341015610a3b576040517f08c379a0000000000000000000000000000000000000000000000000000000008152600401610a3290611fec565b60405180910390fd5b6000670de0b6b3a764000060085434610a5491906121c5565b610a5e91906121c5565b9050610a6a82826115f0565b5050565b610a76611110565b73ffffffffffffffffffffffffffffffffffffffff16610a94610afa565b73ffffffffffffffffffffffffffffffffffffffff1614610aea576040517f08c379a0000000000000000000000000000000000000000000000000000000008152600401610ae19061200c565b60405180910390fd5b8060068190555050565b60065481565b6000600560009054906101000a900473ffffffffffffffffffffffffffffffffffffffff16905090565b606060048054610b33906122db565b80601f0160208091040260200160405190810160405280929190818152602001828054610b5f906122db565b8015610bac5780601f10610b8157610100808354040283529160200191610bac565b820191906000526020600020905b815481529060010190602001808311610b8f57829003601f168201915b5050505050905090565b600080610bc1611110565b90506000600160008373ffffffffffffffffffffffffffffffffffffffff1673ffffffffffffffffffffffffffffffffffffffff16815260200190815260200160002060008673ffffffffffffffffffffffffffffffffffffffff1673ffffffffffffffffffffffffffffffffffffffff16815260200190815260200160002054905083811015610c87576040517f08c379a0000000000000000000000000000000000000000000000000000000008152600401610c7e906120ac565b60405180910390fd5b610c948286868403611118565b60019250505092915050565b60008111610ce3576040517f08c379a0000000000000000000000000000000000000000000000000000000008152600401610cda90611fcc565b60405180910390fd5b600060096000610cf1611110565b73ffffffffffffffffffffffffffffffffffffffff1673ffffffffffffffffffffffffffffffffffffffff168152602001908152602001600020549050610d3f610d39611110565b83611816565b8181610d4b919061213e565b90508060096000610d5a611110565b73ffffffffffffffffffffffffffffffffffffffff1673ffffffffffffffffffffffffffffffffffffffff168152602001908152602001600020819055505050565b600080610da7611110565b9050610db481858561136f565b600191505092915050565b62093a80600a6000610dcf611110565b73ffffffffffffffffffffffffffffffffffffffff1673ffffffffffffffffffffffffffffffffffffffff16815260200190815260200160002054610e14919061213e565b600a60003373ffffffffffffffffffffffffffffffffffffffff1673ffffffffffffffffffffffffffffffffffffffff168152602001908152602001600020541015610e95576040517f08c379a0000000000000000000000000000000000000000000000000000000008152600401610e8c9061208c565b60405180910390fd5b610ea5610ea0611110565b6119ed565b42600a6000610eb2611110565b73ffffffffffffffffffffffffffffffffffffffff1673ffffffffffffffffffffffffffffffffffffffff16815260200190815260200160002081905550565b610efa611110565b73ffffffffffffffffffffffffffffffffffffffff16610f18610afa565b73ffffffffffffffffffffffffffffffffffffffff1614610f6e576040517f08c379a0000000000000000000000000000000000000000000000000000000008152600401610f659061200c565b60405180910390fd5b60646103e882610f7e91906121c5565b610f889190612194565b60078190555050565b6000600160008473ffffffffffffffffffffffffffffffffffffffff1673ffffffffffffffffffffffffffffffffffffffff16815260200190815260200160002060008373ffffffffffffffffffffffffffffffffffffffff1673ffffffffffffffffffffffffffffffffffffffff16815260200190815260200160002054905092915050565b611020611110565b73ffffffffffffffffffffffffffffffffffffffff1661103e610afa565b73ffffffffffffffffffffffffffffffffffffffff1614611094576040517f08c379a000000000000000000000000000000000000000000000000000000000815260040161108b9061200c565b60405180910390fd5b600073ffffffffffffffffffffffffffffffffffffffff168173ffffffffffffffffffffffffffffffffffffffff161415611104576040517f08c379a00000000000000000000000000000000000000000000000000000000081526004016110fb90611f0c565b60405180910390fd5b61110d81611750565b50565b600033905090565b600073ffffffffffffffffffffffffffffffffffffffff168373ffffffffffffffffffffffffffffffffffffffff161415611188576040517f08c379a000000000000000000000000000000000000000000000000000000000815260040161117f9061206c565b60405180910390fd5b600073ffffffffffffffffffffffffffffffffffffffff168273ffffffffffffffffffffffffffffffffffffffff1614156111f8576040517f08c379a00000000000000000000000000000000000000000000000000000000081526004016111ef90611f2c565b60405180910390fd5b80600160008573ffffffffffffffffffffffffffffffffffffffff1673ffffffffffffffffffffffffffffffffffffffff16815260200190815260200160002060008473ffffffffffffffffffffffffffffffffffffffff1673ffffffffffffffffffffffffffffffffffffffff168152602001908152602001600020819055508173ffffffffffffffffffffffffffffffffffffffff168373ffffffffffffffffffffffffffffffffffffffff167f8c5be1e5ebec7d5bd14f71427d1e84f3dd0314c0f7b2291e5b200ac8c7c3b925836040516112d691906120ec565b60405180910390a3505050565b60006112ef8484610f91565b90507fffffffffffffffffffffffffffffffffffffffffffffffffffffffffffffffff8114611369578181101561135b576040517f08c379a000000000000000000000000000000000000000000000000000000000815260040161135290611f4c565b60405180910390fd5b6113688484848403611118565b5b50505050565b600073ffffffffffffffffffffffffffffffffffffffff168373ffffffffffffffffffffffffffffffffffffffff1614156113df576040517f08c379a00000000000000000000000000000000000000000000000000000000081526004016113d69061204c565b60405180910390fd5b600073ffffffffffffffffffffffffffffffffffffffff168273ffffffffffffffffffffffffffffffffffffffff16141561144f576040517f08c379a000000000000000000000000000000000000000000000000000000000815260040161144690611ecc565b60405180910390fd5b61145a838383611a5f565b60008060008573ffffffffffffffffffffffffffffffffffffffff1673ffffffffffffffffffffffffffffffffffffffff168152602001908152602001600020549050818110156114e0576040517f08c379a00000000000000000000000000000000000000000000000000000000081526004016114d790611f6c565b60405180910390fd5b8181036000808673ffffffffffffffffffffffffffffffffffffffff1673ffffffffffffffffffffffffffffffffffffffff16815260200190815260200160002081905550816000808573ffffffffffffffffffffffffffffffffffffffff1673ffffffffffffffffffffffffffffffffffffffff1681526020019081526020016000206000828254611573919061213e565b925050819055508273ffffffffffffffffffffffffffffffffffffffff168473ffffffffffffffffffffffffffffffffffffffff167fddf252ad1be2c89b69c2b068fc378daa952ba7f163c4a11628f55a4df523b3ef846040516115d791906120ec565b60405180910390a36115ea848484611a64565b50505050565b600073ffffffffffffffffffffffffffffffffffffffff168273ffffffffffffffffffffffffffffffffffffffff161415611660576040517f08c379a0000000000000000000000000000000000000000000000000000000008152600401611657906120cc565b60405180910390fd5b61166c60008383611a5f565b806002600082825461167e919061213e565b92505081905550806000808473ffffffffffffffffffffffffffffffffffffffff1673ffffffffffffffffffffffffffffffffffffffff16815260200190815260200160002060008282546116d3919061213e565b925050819055508173ffffffffffffffffffffffffffffffffffffffff16600073ffffffffffffffffffffffffffffffffffffffff167fddf252ad1be2c89b69c2b068fc378daa952ba7f163c4a11628f55a4df523b3ef8360405161173891906120ec565b60405180910390a361174c60008383611a64565b5050565b6000600560009054906101000a900473ffffffffffffffffffffffffffffffffffffffff16905081600560006101000a81548173ffffffffffffffffffffffffffffffffffffffff021916908373ffffffffffffffffffffffffffffffffffffffff1602179055508173ffffffffffffffffffffffffffffffffffffffff168173ffffffffffffffffffffffffffffffffffffffff167f8be0079c531659141344cd1fd0a4f28419497f9722a3daafe3b4186f6b6457e060405160405180910390a35050565b600073ffffffffffffffffffffffffffffffffffffffff168273ffffffffffffffffffffffffffffffffffffffff161415611886576040517f08c379a000000000000000000000000000000000000000000000000000000000815260040161187d9061202c565b60405180910390fd5b61189282600083611a5f565b60008060008473ffffffffffffffffffffffffffffffffffffffff1673ffffffffffffffffffffffffffffffffffffffff16815260200190815260200160002054905081811015611918576040517f08c379a000000000000000000000000000000000000000000000000000000000815260040161190f90611eec565b60405180910390fd5b8181036000808573ffffffffffffffffffffffffffffffffffffffff1673ffffffffffffffffffffffffffffffffffffffff16815260200190815260200160002081905550816002600082825461196f919061221f565b92505081905550600073ffffffffffffffffffffffffffffffffffffffff168373ffffffffffffffffffffffffffffffffffffffff167fddf252ad1be2c89b69c2b068fc378daa952ba7f163c4a11628f55a4df523b3ef846040516119d491906120ec565b60405180910390a36119e883600084611a64565b505050565b6000600960008373ffffffffffffffffffffffffffffffffffffffff1673ffffffffffffffffffffffffffffffffffffffff168152602001908152602001600020549050600060075482611a4191906121c5565b9050611a5a836103e883611a559190612194565b6115f0565b505050565b505050565b505050565b600081359050611a78816127ba565b92915050565b600081359050611a8d816127d1565b92915050565b600060208284031215611aa557600080fd5b6000611ab384828501611a69565b91505092915050565b60008060408385031215611acf57600080fd5b6000611add85828601611a69565b9250506020611aee85828601611a69565b9150509250929050565b600080600060608486031215611b0d57600080fd5b6000611b1b86828701611a69565b9350506020611b2c86828701611a69565b9250506040611b3d86828701611a7e565b9150509250925092565b60008060408385031215611b5a57600080fd5b6000611b6885828601611a69565b9250506020611b7985828601611a7e565b9150509250929050565b600060208284031215611b9557600080fd5b6000611ba384828501611a7e565b91505092915050565b611bb581612253565b82525050565b611bc481612265565b82525050565b6000611bd582612122565b611bdf818561212d565b9350611bef8185602086016122a8565b611bf88161239a565b840191505092915050565b6000611c1060238361212d565b9150611c1b826123ab565b604082019050919050565b6000611c3360228361212d565b9150611c3e826123fa565b604082019050919050565b6000611c5660268361212d565b9150611c6182612449565b604082019050919050565b6000611c7960228361212d565b9150611c8482612498565b604082019050919050565b6000611c9c601d8361212d565b9150611ca7826124e7565b602082019050919050565b6000611cbf60268361212d565b9150611cca82612510565b604082019050919050565b6000611ce2600d8361212d565b9150611ced8261255f565b602082019050919050565b6000611d05601b8361212d565b9150611d1082612588565b602082019050919050565b6000611d2860128361212d565b9150611d33826125b1565b602082019050919050565b6000611d4b60138361212d565b9150611d56826125da565b602082019050919050565b6000611d6e60208361212d565b9150611d7982612603565b602082019050919050565b6000611d9160218361212d565b9150611d9c8261262c565b604082019050919050565b6000611db460258361212d565b9150611dbf8261267b565b604082019050919050565b6000611dd760248361212d565b9150611de2826126ca565b604082019050919050565b6000611dfa60138361212d565b9150611e0582612719565b602082019050919050565b6000611e1d60258361212d565b9150611e2882612742565b604082019050919050565b6000611e40601f8361212d565b9150611e4b82612791565b602082019050919050565b611e5f81612291565b82525050565b611e6e8161229b565b82525050565b6000602082019050611e896000830184611bac565b92915050565b6000602082019050611ea46000830184611bbb565b92915050565b60006020820190508181036000830152611ec48184611bca565b905092915050565b60006020820190508181036000830152611ee581611c03565b9050919050565b60006020820190508181036000830152611f0581611c26565b9050919050565b60006020820190508181036000830152611f2581611c49565b9050919050565b60006020820190508181036000830152611f4581611c6c565b9050919050565b60006020820190508181036000830152611f6581611c8f565b9050919050565b60006020820190508181036000830152611f8581611cb2565b9050919050565b60006020820190508181036000830152611fa581611cd5565b9050919050565b60006020820190508181036000830152611fc581611cf8565b9050919050565b60006020820190508181036000830152611fe581611d1b565b9050919050565b6000602082019050818103600083015261200581611d3e565b9050919050565b6000602082019050818103600083015261202581611d61565b9050919050565b6000602082019050818103600083015261204581611d84565b9050919050565b6000602082019050818103600083015261206581611da7565b9050919050565b6000602082019050818103600083015261208581611dca565b9050919050565b600060208201905081810360008301526120a581611ded565b9050919050565b600060208201905081810360008301526120c581611e10565b9050919050565b600060208201905081810360008301526120e581611e33565b9050919050565b60006020820190506121016000830184611e56565b92915050565b600060208201905061211c6000830184611e65565b92915050565b600081519050919050565b600082825260208201905092915050565b600061214982612291565b915061215483612291565b9250827fffffffffffffffffffffffffffffffffffffffffffffffffffffffffffffffff038211156121895761218861230d565b5b828201905092915050565b600061219f82612291565b91506121aa83612291565b9250826121ba576121b961233c565b5b828204905092915050565b60006121d082612291565b91506121db83612291565b9250817fffffffffffffffffffffffffffffffffffffffffffffffffffffffffffffffff04831182151516156122145761221361230d565b5b828202905092915050565b600061222a82612291565b915061223583612291565b9250828210156122485761224761230d565b5b828203905092915050565b600061225e82612271565b9050919050565b60008115159050919050565b600073ffffffffffffffffffffffffffffffffffffffff82169050919050565b6000819050919050565b600060ff82169050919050565b60005b838110156122c65780820151818401526020810190506122ab565b838111156122d5576000848401525b50505050565b600060028204905060018216806122f357607f821691505b602082108114156123075761230661236b565b5b50919050565b7f4e487b7100000000000000000000000000000000000000000000000000000000600052601160045260246000fd5b7f4e487b7100000000000000000000000000000000000000000000000000000000600052601260045260246000fd5b7f4e487b7100000000000000000000000000000000000000000000000000000000600052602260045260246000fd5b6000601f19601f8301169050919050565b7f45524332303a207472616e7366657220746f20746865207a65726f206164647260008201527f6573730000000000000000000000000000000000000000000000000000000000602082015250565b7f45524332303a206275726e20616d6f756e7420657863656564732062616c616e60008201527f6365000000000000000000000000000000000000000000000000000000000000602082015250565b7f4f776e61626c653a206e6577206f776e657220697320746865207a65726f206160008201527f6464726573730000000000000000000000000000000000000000000000000000602082015250565b7f45524332303a20617070726f766520746f20746865207a65726f20616464726560008201527f7373000000000000000000000000000000000000000000000000000000000000602082015250565b7f45524332303a20696e73756666696369656e7420616c6c6f77616e6365000000600082015250565b7f45524332303a207472616e7366657220616d6f756e742065786365656473206260008201527f616c616e63650000000000000000000000000000000000000000000000000000602082015250565b7f496e76616c6964416d6f756e7400000000000000000000000000000000000000600082015250565b7f616d6f756e7420657863656564207374616b656420616d6f756e740000000000600082015250565b7f696e53756666696369656e74416d6f756e740000000000000000000000000000600082015250565b7f496e53756666696369656e7442616c616e636500000000000000000000000000600082015250565b7f4f776e61626c653a2063616c6c6572206973206e6f7420746865206f776e6572600082015250565b7f45524332303a206275726e2066726f6d20746865207a65726f2061646472657360008201527f7300000000000000000000000000000000000000000000000000000000000000602082015250565b7f45524332303a207472616e736665722066726f6d20746865207a65726f20616460008201527f6472657373000000000000000000000000000000000000000000000000000000602082015250565b7f45524332303a20617070726f76652066726f6d20746865207a65726f2061646460008201527f7265737300000000000000000000000000000000000000000000000000000000602082015250565b7f43616e6e6f7420636c61696d2072657761726400000000000000000000000000600082015250565b7f45524332303a2064656372656173656420616c6c6f77616e63652062656c6f7760008201527f207a65726f000000000000000000000000000000000000000000000000000000602082015250565b7f45524332303a206d696e7420746f20746865207a65726f206164647265737300600082015250565b6127c381612253565b81146127ce57600080fd5b50565b6127da81612291565b81146127e557600080fd5b5056fea264697066735822122065d64729860ddf3f4d0c4d5a91b3eea6a224069fe485f67d40becb6b732bae7b64736f6c63430008040033",
  "linkReferences": {},
  "deployedLinkReferences": {}
}